:020000040800F2
:10000000F81100202D050008010300080303000873
:10001000070300080B0300080F030008000000009E
:1000200000000000000000000000000013030008B2
:10003000150300080000000017030008190300085A
:100040004705000847050008470500084705000860
:100050004705000847050008470500084705000850
:100060004705000847050008470500084705000840
:100070004705000847050008470500084705000830
:100080004705000847050008470500084705000820
:100090004705000847050008470500084705000810
:1000A0004705000847050008470500084705000800
:1000B0004705000803360008193600084705000800
:1000C00047050008470500084705000847050008E0
:1000D00047050008DD21000847050008470500081E
:1000E00047050008470500084705000847050008C0
:1000F00047050008470500084705000847050008B0
:1001000047050008470500088D330008470500082B
:10011000B7370008470500084705000847050008ED
:10012000470500084705000847050008470500087F
:10013000470500084705000847050008470500086F
:10014000470500084705000847050008470500085F
:10015000470500084705000847050008470500084F
:10016000470500084705000847050008470500083F
:10017000470500084705000847050008470500082F
:10018000470500084705000800F002F800F05CF899
:100190000AA090E8000C82448344AAF10107DA45E2
:1001A00001D100F051F8AFF2090EBAE80F0013F0D8
:1001B000010F18BFFB1A43F001031847585D0000F8
:1001C000785D00000A444FF0000C10F8013B13F07A
:1001D000070408BF10F8014B1D1108BF10F8015BA0
:1001E000641E05D010F8016B641E01F8016BF9D193
:1001F00013F0080F1EBF10F8014BAD1C0C1B09D1EA
:100200006D1E58BF01F801CBFAD505E014F8016B5B
:1002100001F8016B6D1EF9D59142D6D370470000ED
:100220000023002400250026103A28BF78C1FBD8FF
:10023000520728BF30C148BF0B6070471FB503F09D
:10024000C0FE1FBD10B510BD03F081FE1146FFF7C3
:10025000F5FF00F009F803F09FFE03B4FFF7F2FF8B
:1002600003BC03F0A7FE000008B54FF4A06000F047
:100270007DF9A82001F0DEFE02F070F802F0A6FF82
:100280000120102317A220210090002002F0DCFDA5
:100290000120102315A230210090002002F0D4FD8F
:1002A00003F048F801F0E0FF02F078F802F0B2F94C
:1002B00003F078F803F0FEF803F0D7F902F075F9CF
:1002C00003F08AFD0B490860084600680A49086087
:1002D00003F082FD0749086002E00020074908603A
:1002E000FBE70000706F696E743A000049525F6767
:1002F00065743A000400002000000020A4824242FD
:10030000704700BFFEE700BFFEE700BFFEE700BF8B
:10031000FEE7704770477047704700000CB500203B
:10032000019000907648006840F48030744908607D
:1003300000BF7348006800F4003000900198401C32
:100340000190009818B90198B0F5A04FF1D16C4810
:10035000006800F4003010B10120009001E000209E
:1003600000900098012846D165484030006840F070
:1003700080506349403108606248006840F4404062
:10038000604908605E48083000685D4908310860CF
:100390000846006840F4004008600846006840F4E1
:1003A000A05008605848091F0860081F006840F006
:1003B0008070091F086000BF5148006800F000709D
:1003C0000028F9D040F20570504908604C480830C8
:1003D000006820F003004A490831086008460068B8
:1003E00040F00200086000BF45480830006800F097
:1003F0000C000828F8D10CBD10B54548006840F441
:100400007000434908603E48006840F001003C49E4
:10041000086000203A4908310860394800683D49C1
:100420000840374908603C48091D0860081F0068FB
:1004300020F48020091F0860002031490C31086039
:10044000FFF76CFF4FF0006031498039086010BD44
:1004500070B500200022022300240221284D083517
:100460002D6805F00C0020B1042806D0082834D1EE
:1004700007E02A4D2A4E356033E02A4D284E35607C
:100480002FE01F4D2D1D2D68C5F380541C4D2D1DD3
:100490002D6805F03F0154B1224DB5FBF1F5184E22
:1004A000361D3668C6F3881605FB06F209E01B4DBB
:1004B000B5FBF1F5124E361D3668C6F3881605FBFE
:1004C00006F20F4D2D1D2D68C5F301456D1C6B0007
:1004D000B2FBF3F5124E356003E0104D104E35605F
:1004E00000BF00BF064D08352D68C5F303150E4E3D
:1004F000705D0B4D2D68C540094E356070BD000024
:10050000003802400070004008544007003C0240A0
:1005100088ED00E0FFFFF6FE103000240024F40018
:100520000C00002000127A001000002009488047CB
:1005300009480047FEE7FEE7FEE7FEE7FEE7FEE7C5
:10054000FEE7FEE7FEE7FEE704480549054A064BDD
:1005500070470000F903000889010008F80B00202B
:10056000F8110020F80D0020F80D00203249014359
:10057000324A1160704770B5002100230F22C47801
:100580001CB32E4C246804F4E064C4F5E064C4F3A6
:100590000721C1F10404E3B20A4144789C40E1B26E
:1005A0008478144021430C07210E254C05786155B1
:1005B000047804F01F050124AC4005786D11AD00EE
:1005C00005F1E025C5F8004109E0047804F01F05B5
:1005D0000124AC401B4D0678761145F8264070BDCD
:1005E000194A0A400243154B1B1F1A60704739B164
:1005F000124A121D12680243104B1B1D1A6006E0BE
:100600000E4A121D126882430C4B1B1D1A60704764
:10061000042808D14FF0E021096941F004014FF0AE
:10062000E022116107E04FF0E021096921F00401A7
:100630004FF0E022116170470000FA050CED00E078
:1006400000E400E080E100E080FFFF1F10B50446F9
:100650009848844208D10121084600F086FB002119
:10066000012000F082FB76E09348844208D101210A
:10067000022000F07AFB0021022000F076FB6AE005
:100680008E48844208D10121042000F06EFB002135
:10069000042000F06AFB5EE08948844208D1012111
:1006A000082000F062FB0021082000F05EFB52E011
:1006B0008448844208D10121102000F056FB00211B
:1006C000102000F052FB46E07F48844208D101210F
:1006D000202000F04AFB0021202000F046FB3AE0F9
:1006E0007A48844208D10121402000F03EFB0021DD
:1006F000402000F03AFB2EE07548844208D10121E9
:10070000802000F032FB0021802000F02EFB22E050
:100710007048844208D10121801500F026FB002199
:10072000A01500F022FB16E06B48844208D101219D
:10073000401500F01AFB0021601500F016FB0AE0DE
:100740006648844207D10121001500F00EFB00210C
:10075000201500F00AFB10BDF0B50A460021002369
:10076000002400BF3DE0012505FA01F3156805EA04
:1007700003049C4234D105684F000326BE40B543B4
:10078000056015794E00B54006683543056015795A
:10079000012D02D01579022D16D185684F00032650
:1007A000BE40B543856055794E00B54086683543F7
:1007B0008560456801268E40B54345604568967959
:1007C0008E40B6B235434560C5684F000326BE4033
:1007D000B543C560D5794E00B540C6683543C560A0
:1007E000491C1029BFD3F0BD4FF6FF7101600021F5
:1007F000017141718171C171704708B54FF4803248
:100800000092009A0A430092009AC261C161009A64
:10081000C261C2690092C269009208BD024600200E
:1008200013690B400BB1012000E000207047014626
:10083000086980B270470246002053690B400BB133
:10084000012000E0002070470146486980B27047EF
:1008500001837047418370470AB1018300E04183FF
:1008600070474161704742694A4042617047F0B544
:10087000002300244D07ED0E02FA05F3CE1000F11F
:10088000200555F826504E07F70E0F26BE40B543FB
:10089000CF1000F1200646F82750CE1000F12005B9
:1008A00055F8265045EA0304CE1000F1200545F81E
:1008B0002640F0BD00000240000402400008024053
:1008C000000C0240001002400014024000180240D8
:1008D000001C024000200240002402400028024088
:1008E000F948006840F00100F74908600020F64927
:1008F00008310860F4480068F4490840F24908608B
:10090000F348091D0860F348EF4984310860F04856
:100910001038091D0860EC48006820F48020EA497E
:1009200008600020E8490C310860E7498C31086014
:1009300070470021E44A921C1170114608707047FC
:1009400010B501460022002300204A11012A02D1DD
:10095000DD4C236808E0022A03D1DB4C70342368A5
:1009600002E0D94C7434236801F01F020124944042
:100970001C400CB1012000E0002010BD38B5002063
:1009800000900024002500BF3120FFF7D9FF054665
:100990000098401C00900098B0F5A04F01D0002DA9
:1009A000F2D03120FFF7CCFF08B1012400E0002491
:1009B000204638BD01460020C34A106820F0F800E8
:1009C00040EAC10010607047C349086070470021C9
:1009D000BD4A703211701170012802D004280AD16A
:1009E00004E00121B84A7032117005E00521B64AD1
:1009F0007032117000E000BF00BF7047B749086057
:100A0000704770B5049C41EA82150126C6EB530677
:100A100045EA0645054345EA0465AB4E361D35609B
:100A200070BDAD4908667047820142EA0172A64B6B
:100A300084331A607047A8498866704710B58301EF
:100A400043EA016343EA02739F4C8834236010BD7C
:100A5000A14908677047A049C86470470246002052
:100A6000994B0833186820F0EC6042EA0103184300
:100A7000954B08331860704702460020924B0833AC
:100A8000186820F0784042EA010318438E4B08337F
:100A900018607047014600208B4A0832106820F029
:100AA000030008431060704787480830006800F072
:100AB0000C00704701460020834A0832106820F07D
:100AC000F000084310607047014600207E4A08325B
:100AD000106820F4E0500843106070470146002081
:100AE000794A0832106820F4604040EAC100106082
:100AF0007047F0B5002100220024022500260223C1
:100B0000714F08373F6807F00C0121B1042905D067
:100B1000082937D105E0724F076036E0714F076052
:100B200033E0694F3F1D3F68C7F38056664F3F1D56
:100B30003F6807F03F036EB16A4FB7FBF3F7DFF88A
:100B400088C10CF1040CDCF800C0CCF3881C07FB56
:100B50000CF40CE0624FB7FBF3F7DFF86CC10CF15B
:100B6000040CDCF800C0CCF3881C07FB0CF4564FD7
:100B70003F1D3F68C7F301477F1C7D00B4FBF5F7BD
:100B8000076002E0564F076000BF00BF4E4F0837B6
:100B90003F6807F0F0010909534F7A5C0768D740B6
:100BA0004760494F08373F6807F4E051890A4E4FC4
:100BB0007A5C4768D7408760434F08373F6807F43F
:100BC0006041490B484F7A5C4768D740C760F0BD29
:100BD000002100F44072B2F5407F0AD13A4A08324F
:100BE000116821F4F811414A02401143364A083293
:100BF0001160354A70321268C0F30B031A43324B4E
:100C000070331A607047354944390860704733497A
:100C10004039086070473649086070470146002037
:100C2000294A8C32106820F01F004A1E1043264AC1
:100C30008C321060704701460020234A8C321068C5
:100C400020F4F8504A1E40EA02201F4A8C321060FD
:100C50007047014600201C4A8C32106820F4401076
:100C600008431060704701460020174A8C32106814
:100C700020F4400008431060704701460020124AEB
:100C80008C32106820F440300843106070471949D6
:100C90000860704739B10C4A3032126802430A4B7F
:100CA00030331A6006E0084A303212688243064B3D
:100CB00030331A607047F9B1034A34321268024384
:100CC000014B34331A601CE000380240FFFFF6EAA3
:100CD000103000240030002000004742800E4742C0
:100CE0000024F40000127A0020000020FFFCFF0F17
:100CF0005C014742E01147428F4A126882438E4BA3
:100D00001A60704739B18C4A121D126802438A4B2F
:100D10001B1D1A6006E0884A121D12688243864B2A
:100D20001B1D1A60704739B1834A0C3212680243A6
:100D3000814B0C331A6006E07F4A0C321268824302
:100D40007D4B0C331A60704739B17B4A1032126800
:100D50000243794B10331A6006E0774A103212686A
:100D60008243754B10331A60704739B1724A243A86
:100D700012680243704B243B1A6006E06E4A243A24
:100D8000126882436C4B243B1A60704739B16A4A3F
:100D9000203A12680243684B203B1A6006E0664A1C
:100DA000203A12688243644B203B1A60704739B185
:100DB000614A1C3A126802435F4B1C3B1A6006E012
:100DC0005D4A1C3A126882435B4B1C3B1A607047B9
:100DD00039B1594A143A12680243574B143B1A600E
:100DE00006E0554A143A12688243534B143B1A608A
:100DF000704739B1504A103A126802434E4B103BCB
:100E00001A6006E04C4A103A126882434A4B103B83
:100E10001A60704739B1484A1C3212680243464B87
:100E20001C331A6006E0444A1C3212688243424B6B
:100E30001C331A60704739B13F4A203212680243AE
:100E40003D4B20331A6006E03B4A20321268824351
:100E5000394B20331A60704739B1374A243212684F
:100E60000243354B24331A6006E0334A24321268B9
:100E70008243314B24331A60704739B12E4A2C32E9
:100E8000126802432C4B2C331A6006E02A4A2C329B
:100E900012688243284B2C331A60704739B1264AB6
:100EA000303212680243244B30331A6006E0224A83
:100EB000303212688243204B30331A607047012869
:100EC00008D11D493C31096841F008011A4A3C32F9
:100ED000116007E018493C31096821F00801164A01
:100EE0003C321160704739B1134A273A12780243F5
:100EF000114B273B1A7006E00F4A273A12788243BB
:100F00000D4B273B1A7070470B484030006840F08B
:100F10008070094940310860704701460020064A48
:100F2000283A12680A400AB1012000E00020704708
:100F300001492639087070473438024010B504461C
:100F4000FE48844208D101210846FFF752FF0021E4
:100F50000120FFF74EFF9DE0B4F1804F08D1012141
:100F60000846FFF735FF00210120FFF731FF91E030
:100F7000F348844208D101210220FFF729FF002114
:100F80000220FFF725FF85E0EE48844208D10121C9
:100F90000420FFF71DFF00210420FFF719FF79E06F
:100FA000E948844208D101210820FFF711FF002100
:100FB0000820FFF70DFF6DE0E448844208D10121CD
:100FC0001020FFF705FF00211020FFF701FF61E06F
:100FD000DF48844208D101212020FFF7F9FE0021DB
:100FE0002020FFF7F5FE55E0DA48844208D10121C0
:100FF0000220FFF7FEFE00210220FFF7FAFE49E083
:10100000D548844209D101210804FFF7F2FE0021EE
:101010004FF48030FFF7EDFE3CE0D048844209D128
:1010200001214804FFF7E5FE00214FF40030FFF7EF
:10103000E0FE2FE0CA48844209D101218804FFF76D
:10104000D8FE00214FF48020FFF7D3FE22E0C548F0
:10105000844208D101214020FFF7BAFE0021402040
:10106000FFF7B6FE16E0C048844208D10121802077
:10107000FFF7AEFE00218020FFF7AAFE0AE0BB4882
:10108000844207D101218015FFF7A2FE0021A0159F
:10109000FFF79EFE10BD00220288A84B98420ED09A
:1010A000AC4B98420BD0B0F1804F08D0A44B984283
:1010B00005D0A44B984202D0A34B984204D14FF6DE
:1010C0008F731A404B881A43A04B984207D0A04B0D
:1010D000984204D04FF6FF431A400B891A4302800E
:1010E0004B68C3620B880385944B984202D0994B9E
:1010F000984201D18B7A03860123838270474FF097
:10110000FF3141600021018001814180817270477F
:101110000185828270470A46002101884FF68F734D
:10112000194011430180704741627047C1627047A6
:101130000146486A70470146088D704721B1028810
:1011400042F00202028004E002884FF6FD731A406A
:101150000280704721B1028842F00402028004E05C
:1011600002884FF6FB731A400280704721B1028853
:1011700042F08002028004E002884FF67F731A403A
:101180000280704702884FF6F7731A400280028887
:101190000A430280704702884FF6FF431A400280DC
:1011A00002880A430280704721B1028842F001029E
:1011B000028004E002884FF6FE731A4002807047F6
:1011C00070B5002400220023058C4FF6FE763540D2
:1011D0000584028C8388048B4FF68F752C40B51ED6
:1011E0002C400D882C43751E2A408D892A434D883A
:1011F0002A43524DA84202D0564DA84213D14FF671
:10120000F7752A40CD892A434FF6FB752A408D8811
:101210002A434FF6FF652B404FF6FF552B400D8AB2
:101220002B434D8A2B43838004838D68456302845E
:1012300070BD70B5002400220023058C4FF6EF76B8
:1012400035400584028C8388048B48F6FF752C405A
:101250004FF6FF452C400D884FF6FF7606EA052530
:101260002C434FF6DF752A408D8906EA05152A437F
:101270004D8806EA05152A43304DA84202D0354D67
:10128000A8421DD14FF67F752A40CD894FF6FF76D3
:1012900006EA05152A434FF6BF752A408D8806EAEF
:1012A00005152A434FF6FF352B404FF2FF752B40B3
:1012B0000D8A06EA85052B434D8A06EA85052B43F0
:1012C000838004838D688563028470BD70B50024BB
:1012D00000220023058C4FF6FF6635400584028C02
:1012E0008388848B4FF68F752C404FF6FC752C400D
:1012F0000D882C434FF6FF552A408D894FF6FF7617
:1013000006EA05252A434D8806EA05252A430B4DA2
:10131000A84202D00F4DA84238D14FF2FF752A40A3
:10132000CD894FF6FF7606EA05252A434FF6FF35AD
:101330002A408D8806EA05252A4319E0000001406D
:101340000004004000080040000C00400010004075
:1013500000140040000401400040014000440140EE
:101360000048014000180040001C004000200040E0
:101370004EF6FF752B404DF6FF752B400D8A06EAA1
:1013800005152B434D8A06EA05152B43838084837C
:101390008D68C563028470BD70B5002200230024EF
:1013A000058C4EF6FF7635400584038C8488828B4D
:1013B00048F6FF752A404FF6FF452A400D884FF644
:1013C000FF7606EA05252A434DF6FF752B408D89E9
:1013D00006EA05352B434D8806EA05352B43FE4DBD
:1013E000A84202D0FD4DA84208D14BF6FF752C4013
:1013F0000D8A4FF6FF7606EA85152C43848082839A
:101400008D680564038470BD002101804180818066
:1014100081608181C18101824182704770B503463C
:10142000002000241846183001258D40ACB21D8CD8
:10143000A5431D8409B108290AD100EB61000568A4
:101440004FF68F76354005600568154305600FE05F
:101450000D1FC5F34E052844056848F6FF76354054
:10146000056005684FF6FF7606EA022635430560FB
:1014700070BD4163704781637047C1637047016409
:1014800070470A460021018B4FF68F7319401143B4
:10149000018370470A460021018B48F6FF7319400B
:1014A0004FF6FF7303EA02231943018370470A468C
:1014B0000021818B4FF68F73194011438183704750
:1014C0000A460021818B48F6FF7319404FF6FF73DF
:1014D00003EA02231943818370470A460021018BE6
:1014E0004FF6F77319401143018370470A460021F4
:1014F000018B4FF2FF7319404FF6FF7303EA02238B
:101500001943018370470A460021818B4FF6F77318
:1015100019401143818370470A460021818B4FF2A5
:10152000FF7319404FF6FF7303EA022319438183C7
:1015300070470A460021018B4FF6FB731940114397
:10154000018370470A460021018B4FF6FF33194093
:101550004FF6FF7303EA02231943018370470A46DB
:101560000021818B4FF6FB73194011438183704733
:101570000A460021818B4FF6FF3319404FF6FF7367
:1015800003EA02231943818370470A460021018B35
:101590004FF67F7319401143018370470A460021BB
:1015A000018BC1F30E014FF6FF7303EA02231943C7
:1015B000018370470A460021818B4FF67F731940E3
:1015C0001143818370470A460021818BC1F30E01CC
:1015D0004FF6FF7303EA02231943818370470A46DB
:1015E0000021018C4FF6FD731940114301847047AF
:1015F0000A460021018C4FF6F7731940114301840C
:1016000070470A460021018C4FF6DF7319404FF6F0
:10161000FF7303EA02131943018470470A4600214D
:10162000018C4FF67F7319404FF6FF7303EA0213E4
:101630001943018470470A460021018C4FF6FF537D
:1016400019404FF6FF7303EA0223194301847047E0
:101650000A460021018C4FF2FF7319404FF6FF73C9
:1016600003EA02231943018470470A460021018CD2
:101670004DF6FF7319404FF6FF7303EA0233194327
:101680000184704730B5002301248C40A3B2048C40
:101690009C430484048C02FA01F5ADB22C4304840B
:1016A00030BD30B5002304248C40A3B2048C9C438D
:1016B0000484048C02FA01F5ADB22C43048430BDDD
:1016C000828B4FF2FF331A408283828B4FF6FF7377
:1016D00003EA01231A4382837047F0B50C4615468E
:1016E000002100220026078C4EF6FF7C07EA0C073B
:1016F0000784818B028C4FF6FF7707EA043640F6A9
:10170000FF4739404FF6FF7707EA052739434FF681
:10171000FF7707EA0337394345F6FF773A4046F447
:1017200080573A4381830284F0BD828B4FF6F37376
:101730001A408283828B0A4382837047F0B50C463D
:101740001546002100220026078C4FF6FF6C07EAA1
:101750000C070784818B028C4FF6FF7707EA04267B
:101760004FF60C7739404FF6FF7707EA03172F4300
:1017700039434FF2FF573A4046F480773A4381832A
:101780000284F0BD028B4FF2FF331A400283028BBA
:101790004FF6FF7303EA01231A4302837047F0B543
:1017A0000C461546002100220026078C4FF6EF7CE0
:1017B00007EA0C070784018B028C4FF6FF7707EAD4
:1017C000041640F6FF4739404FF6FF7707EA033724
:1017D00039434FF6FF7703E0000001400004014069
:1017E00007EA052739434FF65F773A4046F010077E
:1017F0003A4301830284F0BD028B4FF6F3731A4023
:101800000283028B0A4302837047F0B50C461546EB
:1018100000210022068C4FF6FE773E400684018BA5
:10182000028C4FF60C7631407E1C06EA03162E43DE
:1018300031434FF6F576324044F0010632430183DE
:101840000284F0BD70B505460C46208850B9238946
:10185000A28861882846FFF7D8FFE1882846FFF76D
:10186000CBFF25E0208804280AD12389A28861883B
:101870002846FFF794FFE1882846FFF783FF17E02B
:10188000208808280AD12389A28861882846FFF782
:1018900055FFE1882846FFF748FF09E02389A28821
:1018A00061882846FFF719FFE1882846FFF708FFFF
:1018B00070BD002101804180012181800021C18013
:1018C000018170472DE9F04105460C4600260127AD
:1018D000608808B9022600E00026A088012801D10E
:1018E000022700E001272088A0B92389A288618807
:1018F0002846FFF78AFFE1882846FFF77DFF238906
:101900003A4631462846FFF74AFFE1882846FFF766
:1019100039FF13E02389A28861882846FFF73FFF3B
:10192000E1882846FFF72EFF23893A4631462846AC
:10193000FFF76BFFE1882846FFF75EFFBDE8F08107
:101940000146486B70470146886B70470146C86B7B
:1019500070470146086C70470A884B881A438B8889
:101960001A43CB881A430B891A434B891A438B8934
:101970001A43A0F8442070470021018041808180F3
:10198000C180018141818181704731B1B0F844202B
:1019900042F40042A0F8442005E0B0F84420C2F32D
:1019A0000E02A0F84420704721B1828842F0040260
:1019B000828004E082884FF6FB731A408280704771
:1019C00021B1828842F00102828004E082884FF6D1
:1019D000FE731A40828070471AB183890B4383815A
:1019E00002E083898B43838170478182704702467E
:1019F0000020138A0B400BB1012000E0002070474B
:101A0000CA430282704730B50246002000230024FA
:101A1000158A05EA0103958905EA010413B10CB1A1
:101A2000012000E0002030BDCA430282704741EA35
:101A30000203A0F8483070471AB183890B438381B1
:101A400002E083898B438381704721B1828842F011
:101A50000802828004E082884FF6F7731A40828081
:101A6000704701894FF6F8721140018170470A46AC
:101A7000002101894FF68F7319401143018170478E
:101A800030B504460D4629462046FFF7F0FF208971
:101A900040F00700208130BD2DE9F04104460D469D
:101AA00016461F46602D06D13B4601223146204690
:101AB000FFF775FE05E03B46012231462046FFF761
:101AC000A4FE29462046FFF7D2FF208940F00700F8
:101AD0002081BDE8F08130B50C4600210189C9B2F2
:101AE0004FF6FF7505EA0325154325432943018178
:101AF00030BD2DE9F04105460E46174698460024B4
:101B000043463A4631462846FFF7E5FF2C894FF613
:101B1000F870044044F007044FF68F70044044F01E
:101B200070042C81BDE8F081F0B504460D461646E0
:101B30001F463B46324629462046FFF7CCFF208908
:101B400040F480402081F0BD82884FF68F731A40A8
:101B5000828082880A438280704702894FF6F87338
:101B60001A40028102890A430281704702894FF6B6
:101B70007F731A40028102890A4302817047F0B5DF
:101B80000C4615461E460021002200230189028BC7
:101B9000038C4FF6F877394021434FF6FC473A4023
:101BA00040F201173A434FF6DD773B404FF6FF779F
:101BB00007EA06172F433B43018102830384F0BDEC
:101BC00021B1828842F08002828004E082884FF650
:101BD0007F731A4082807047A0F850107047000051
:101BE00010B50446FA48844208D101211020FFF7BD
:101BF00000F900211020FFF7FCF857E0F548844277
:101C000009D101214804FFF7E3F800214FF4003027
:101C1000FFF7DEF84AE0F048844209D10121880448
:101C2000FFF7D6F800214FF48020FFF7D1F83DE010
:101C3000EA48844209D10121C804FFF7C9F800210C
:101C40004FF40020FFF7C4F830E0E548844209D1A2
:101C500001210805FFF7BCF800214FF48010FFF7C1
:101C6000B7F823E0DF48844208D101212020FFF7A4
:101C7000C0F800212020FFF7BCF817E0DA488442C2
:101C800009D101218807FFF7A3F800214FF0804018
:101C9000FFF79EF80AE0D548844207D101214005AC
:101CA000FFF796F800216005FFF792F810BD2DE9C7
:101CB000FF4705460E460024A14600BFA046B08956
:101CC00000B100BF2C8A24F44054F08804432C82D5
:101CD000AC8941F20C608443B08831890843718932
:101CE00008430443AC81AC8A24F44074B0890443B3
:101CF000AC826846FEF7FDFEB548854202D0B94881
:101D0000854202D1DDF80C9001E0DDF80890A88949
:101D100000F4004040B109EBC90000EB0910316844
:101D20004900B0FBF1F707E009EBC90000EB09102F
:101D300031688900B0FBF1F76420B7FBF0F00401D3
:101D40002009642101FB1078A88900F4004040B10B
:101D5000322000EBC800B0FBF1F000F007000443B4
:101D600008E0322000EB08106421B0FBF1F000F035
:101D70000F0004432C81BDE8FF874FF4165101602A
:101D800000218180C18001810C214181002181815C
:101D9000704710B502460020108A20F470600B884E
:101DA0004C8823438C882343CC88234318431082D8
:101DB00010BD0021018041808180C180704721B128
:101DC000828942F40052828104E082894DF6FF73D9
:101DD0001A4082817047028B02F47F420283028B99
:101DE0000A430283704721B1828942F40042828112
:101DF00003E08289C2F30E028281704721B1828A98
:101E000042F40062828204E0828A4FF2FF731A4039
:101E100082827047C1F30802828070470146888839
:101E2000C0F308007047028A4FF6F0731A4002822E
:101E3000028A0A430282704721B1828942F002027B
:101E4000828104E082894FF6FD731A4082817047D7
:101E500082894FF2FF731A40828182890A4382810C
:101E60007047028A4FF6DF731A400282028A0A43E1
:101E70000282704721B1028A42F48042028204E069
:101E8000028A4BF6FF731A4002827047818941F043
:101E900001018181704721B1828A42F00802828269
:101EA00004E0828A4FF6F7731A4082827047028BF1
:101EB000D2B20283028B42EA01220283704721B12F
:101EC000828A42F02002828204E0828A4FF6DF7327
:101ED0001A408282704721B1828A42F010028282C7
:101EE00004E0828A4FF6EF731A4082827047828A3A
:101EF0004FF6FB731A408282828A0A4382827047BD
:101F000021B1828A42F00202828204E0828A4FF684
:101F1000FD731A40828270471AB1838A0B43838211
:101F200002E0838A8B4383827047F0B50346002426
:101F300000260025002040F66A17B94200D100BFF4
:101F40001846C1F3421401F01F06012707FA06F5EF
:101F5000012C01D10C3004E0022C01D1103000E042
:101F600014301AB107682F43076002E00768AF43D7
:101F70000760F0BD02460020B1F5007F00D100BF30
:101F800013880B400BB1012000E00020704701F4E2
:101F90000072B2F5007F00D100BFCA4302807047D3
:101FA00070B50246002400230025002040F66A1682
:101FB000B14200D100BFC1F3421501F01F03012659
:101FC00006FA03F3012D13D19689334017E0000080
:101FD000001001400044004000480040004C004018
:101FE000005000400014014000780040007C004098
:101FF000022D02D1168A334001E0968A33400C123A
:10200000012606FA04F41688344013B10CB10120FD
:1020100000E0002070BD10B50022002340F66A14D5
:10202000A14200D100BF0A1201249440A3B2DC43B4
:10203000048010BD10B504466FF00400FEF7E8FA06
:10204000E11704EB5171C1F3C701394A1170104611
:10205000007800EB4001C1EBC0104FF6FF7101EAC0
:10206000C0003449088010BD0146314A12784A4305
:102070004FF0E0235A6100229A611A46126942F039
:1020800001021A6100BF4FF0E022106900F0010266
:102090001AB100F48032002AF5D04FF0E022126924
:1020A00022F001024FF0E0231A6100229A6170478A
:1020B0000146204A12884A434FF0E0235A61002229
:1020C0009A611A46126942F001021A6100BF4FF08C
:1020D000E022106900F001021AB100F48032002AF7
:1020E000F5D04FF0E022126922F001024FF0E02318
:1020F0001A6100229A61704770B504464FF4077068
:1021000094FBF0F0C6B24FF4077094FBF0F100FBC3
:10211000114085B205E04FF40770FFF7C9FF701E4C
:10212000C6B2002EF7D115B12846FFF7C1FF70BD2A
:10213000300000203200002010B588B00446012194
:102140000846FEF7A7FD01211020FEF7FDFD07223E
:1021500009214148FEF78BFB07220A213E48FEF782
:1021600086FB4FF4C060069002208DF81C008DF8AD
:102170001D0000208DF81E0001208DF81F0006A90B
:102180003548FEF7E9FA02940020ADF80C00ADF8EE
:102190000E00ADF81000ADF814000C20ADF81200E0
:1021A00002A92E48FFF783FD01212C48FFF707FE07
:1021B000012240F225512948FFF7B7FE25208DF86E
:1021C000040003208DF805008DF8060001208DF82D
:1021D000070001A8FEF7CFF908B010BD10B540F216
:1021E00025511E48FFF7DCFE10B31C48FFF716FE12
:1021F000C4B21B48008800F40040C8B918480088E1
:1022000000F4804060B10A2C03D0002014490880FB
:1022100020E01348008840F400401149088019E08C
:102220000D2C06D10E48008840F480400C490880EF
:1022300010E00B480088C0F30D000A490C54084810
:102240000088401C0649088008460088C72801DD30
:102250000020088010BD0000000002400010014076
:10226000340000200402002000B58BB00121084694
:10227000FEF710FD01210846FEF755FD012202215F
:102280003548FEF7F4FA02208DF8280000208DF87A
:102290002A000420099001208DF82B0003208DF8DE
:1022A000290009A92C48FEF757FA0020ADF82000B4
:1022B000ADF81A00C720079042F2CF00ADF8180021
:1022C00006A94FF08040FEF7E6FE6020ADF804005E
:1022D0000120ADF806000420ADF808000020ADF89C
:1022E0001000ADF812000A2003904FF48070ADF892
:1022F00014000020ADF8160001A94FF08040FEF751
:10230000E5FF0821C806FFF7E8F801218807FEF776
:102310002DFF01218807FEF747FF0BB000BD10B568
:102320000C214FF08040FFF7A8F80120FFF7E4FEF2
:1023300010BD10B50F214FF08040FFF79EF801202F
:10234000FFF7DAFE10BD10B512214807FFF795F828
:102350000120FFF7D1FE10BD000002401CB5012195
:102360002020FEF797FC01208DF804004FF4C06098
:10237000009000208DF8060001208DF80700022053
:102380008DF8050069460448FEF7E6F94FF4C06190
:102390000148FEF75DFA1CBD001402401CB5012186
:1023A0002020FEF777FC0F20009001208DF804001C
:1023B00000208DF8060002208DF8070003208DF81C
:1023C000050069468F48FEF7C7F90F218D48FEF7D3
:1023D0003FFA1CBD08B501208B49086000208B49DD
:1023E000C1F884020120884908310860002087492B
:1023F000C1F88C022D218648FFF73BF82D21844837
:10240000FFF73DF80F214FF08040FFF736F801202D
:102410001023082219460090402000F08BFD012077
:102420001023092219460090502000F083FD00F08F
:1024300045FB08BD08B50020734908607349C1F821
:102440008402012070490831086000206F49C1F8FA
:102450008C020A216E48FFF70CF82D216C48FFF71B
:102460000EF80C214FF08040FFF707F801201023F1
:102470000A2219460090402000F05CFD0120102344
:102480000B2219460090502000F054FD00F016FB7E
:1024900008BD10B501205C49086000205B49C1F807
:1024A0008402012058490831086000205749C1F8CA
:1024B0008C020A215648FEF7DCFF2D215448FEF716
:1024C000DEFF10BD08B501204F49086000204F49CC
:1024D000C1F884024C49083108604C49C1F88C02AB
:1024E0002D214B48FEF7C5FF0A214948FEF7C7FFDB
:1024F00012214807FEF7C1FF012010230C221946C4
:102500000090402000F016FD012010230D221946F6
:102510000090502000F00EFD00F0D0FA08BD10B57C
:1025200001203949086000203849C1F8840201209F
:1025300035490831086000203449C1F88C022D214A
:102540003348FEF796FF0A213148FEF798FF10BD89
:1025500008B500202C49086001202C49C1F88402EC
:10256000002029490831086001202849C1F88C025F
:102570002D212748FEF77DFF2D212548FEF77FFFFF
:10258000FFF7D7FE012010231A461946009040207D
:1025900000F0D0FC01201023112219460090502099
:1025A00000F0C8FC00F08AFA08BD08B50020164902
:1025B00008601649C1F884021349083108601349BC
:1025C000C1F88C0200211248FEF753FF0021104889
:1025D000FEF755FF0F214FF08040FEF74EFF012020
:1025E00010230E2219460090402000F0A3FC012089
:1025F00010230F2219460090502000F09BFC00F0A1
:102600005DFA08BD001402408082424200804242CE
:102610000000014000B58BB001210846FEF73AFBEF
:1026200001210846FEF790FB012208213048FEF701
:102630001EF901220B212E48FEF719F902208DF810
:10264000280000208DF82A004FF410600990012026
:102650008DF82B0003208DF8290009A92448FEF7E6
:102660007BF80020ADF82000ADF81A00C7200790D5
:1026700042F2CF00ADF8180000208DF8220006A924
:102680001C48FEF708FD6020ADF804000120ADF8FD
:1026900006000420ADF808000020ADF81000ADF8E9
:1026A00012000A2003904FF48070ADF8140000204F
:1026B000ADF8160001A90F48FEF782FD01A90D48EB
:1026C000FEF76AFE01210B48FFF75FF90821094870
:1026D000FEF703FF08210748FEF708FF0121054820
:1026E000FEF744FD01210348FEF75EFD0BB000BD7F
:1026F000000002400000014070B505460C467DA177
:10270000284601F0E1FB30B9012080F3108800BFBA
:10271000FFF74BFF66E02146284601F0D5FB10B9D4
:10272000FFF758FE5EE075A1284601F0CDFB90B999
:1027300073A1204601F0C8FB10B9FFF77BFE51E002
:1027400071A1204601F0C0FB10B9FFF7BBFE49E0C4
:10275000FFF740FE46E06EA1284601F0B5FB90B9B8
:1027600067A1204601F0B0FB10B9FFF7ABFE39E0DE
:1027700065A1204601F0A8FB10B9FFF75BFE31E030
:10278000FFF728FE2EE05EA1284601F09DFB90B9E0
:102790005AA1204601F098FB10B9FFF793FE21E003
:1027A0005BA1204601F090FB10B1FFF78BFE19E012
:1027B000FFF710FE16E054A1284601F085FB88B90A
:1027C0004EA1204601F080FB10B9FFF733FE09E06F
:1027D0004FA1204601F078FB10B9FFF773FE01E02E
:1027E000FFF7F8FD70BD70B506460D4641A12846BD
:1027F00001F06AFB38B9012080F3108800BFFFF7B1
:10280000D4FE45A473E02946304601F05DFB18B9BB
:10281000FFF7E0FD41A46AE038A1304601F054FB27
:10282000A8B937A1284601F04FFB18B9FFF702FEFF
:102830003BA45CE034A1284601F046FB18B9FFF741
:1028400041FE38A453E0FFF7C5FD34A44FE030A1AA
:10285000304601F039FBA8B929A1284601F034FB24
:1028600018B9FFF72FFE2FA441E027A1284601F059
:102870002BFB18B9FFF7DEFD29A438E0FFF7AAFD0E
:1028800026A434E01EA1304601F01EFBA8B91BA10E
:10289000284601F019FB18B9FFF714FE21A426E021
:1028A0001BA1284601F010FB18B1FFF7C3FD1CA4C3
:1028B0001DE0FFF78FFD19A419E013A1304601F0C8
:1028C00003FBA0B90DA1284601F0FEFA18B9FFF7E5
:1028D000B1FD13A40BE00EA1284601F0F5FA18B9DA
:1028E000FFF7F0FD0FA402E0FFF774FD0BA42046F4
:1028F00070BD00006F76657200000000757000000A
:102900006C656674000000007269676874000000FE
:10291000646F776E0000000050000000410000006E
:102920004C000000520000000A2000BF011EA0F170
:102930000102D0B2FAD1704710B52021FB48FDF753
:1029400089FF4FF48051FA48FDF782FFFFF7ECFF53
:102950002021F648FDF77CFF10BD10B52021F3487B
:10296000FDF776FFFFF7E0FF4FF48051F048FDF7E9
:102970006FFFFFF7D9FF4FF48051ED48FDF76AFF75
:10298000FFF7D2FF10BD70B5044600251DE004F02E
:10299000800020B12021E548FDF75AFF03E0202107
:1029A000E248FDF757FFFFF7BFFF4FF48051E048C3
:1029B000FDF74EFFFFF7B8FF4FF48051DC48FDF7FD
:1029C00049FF6006040E681CC5B2082DDFDB70BD30
:1029D00010B52021D548FDF73BFF4FF48051D44876
:1029E000FDF736FFFFF7A0FF2021D048FDF732FFAB
:1029F000FFF79AFF4FF48051CD48FDF72BFFFFF70B
:102A000093FF10BD70B505460C46FFF7E1FF782037
:102A1000FFF7B9FFFFF7A1FF1CB14020FFF7B3FF9D
:102A200002E00020FFF7AFFFFFF797FF2846FFF710
:102A3000AAFFFFF792FFFFF77FFF70BD10B50446B6
:102A40001CB90021A620FFF7DDFF012C03D10021D6
:102A5000A720FFF7D7FF10BD10B504463CB90021F1
:102A6000C820FFF7CFFF0021A120FFF7CBFF012CEB
:102A700007D10021C020FFF7C5FF0021A020FFF7EC
:102A8000C1FF10BD10B500218D20FFF7BBFF002155
:102A90001420FFF7B7FF0021AF20FFF7B3FF10BDF1
:102AA00010B500218D20FFF7ADFF00211020FFF7AA
:102AB000A9FF0021AE20FFF7A5FF10BD70B50024CF
:102AC0002BE004F1B001C8B20021FFF79BFF002109
:102AD0000846FFF797FF00211020FFF793FFFFF74D
:102AE00077FF7820FFF74FFFFFF737FF4020FFF712
:102AF0004AFFFFF732FF002509E08E4901EBC501CF
:102B0000085DFFF740FFFFF728FF681CC5B2802D66
:102B1000F3DBFFF711FF601CC4B2082CD1DB70BDE2
:102B200070B500240CE0002506E00020814901EB8F
:102B3000C5010855681CC5B2802DF6DB601CC4B207
:102B4000082CF0DBFFF7BAFF70BDF0B514460B465A
:102B5000CF1701EB5777C7F3C702CF1701EB5777B2
:102B6000FF10A1EBC707FEB20123B340DDB24CB1A9
:102B7000704B03EBC0039B5C2B436E4F07EBC0070E
:102B8000BB541AE06B4B03EBC0039B5CDB43694F08
:102B900007EBC007BB54674B03EBC0039B5C2B43A5
:102BA000644F07EBC007BB54624B03EBC0039B5C55
:102BB000DB43604F07EBC007BB54F0BD2DE9FF4F6F
:102BC00084B081468A460020029083460698A0EB96
:102BD00009040798A0EB0A06CDF80490CDF800A0F0
:102BE000002C01DD012705E00CB9002702E04FF0C1
:102BF000FF376442002E02DD4FF0010806E016B9EF
:102C00004FF0000802E04FF0FF386642B44201DDA9
:102C1000254600E03546002003901EE0009AD1B220
:102C2000019AD0B2119AFFF790FF029820440290C7
:102C3000B3440298A84205DD0298401B0290019817
:102C400038440190AB4504DDABEB050B00984044E4
:102C500000900398401C80B20390691C039888423E
:102C6000DCDB08B0BDE8F08F2DE9F04306460F46E7
:102C700090460025444643E03A1BD1B27219D0B2C7
:102C80000122FFF762FF3A1BD1B2721BD0B20122C0
:102C9000FFF75BFF3A19D1B2721BD0B20122FFF7E6
:102CA00054FF3A19D1B27219D0B20122FFF74DFF89
:102CB0007A19D1B23219D0B20122FFF746FF7A1B3E
:102CC000D1B23219D0B20122FFF73FFF7A1BD1B245
:102CD000321BD0B20122FFF738FF7A19D1B2321B72
:102CE000D0B20122FFF731FF6D1C05FB05F004FB9C
:102CF000040008FB1809B9F1000F01DD641E6D1E08
:102D00006000604308FB08F18842B5DABDE8F08353
:102D10002DE9FE4F0746884692461C460197CDF89E
:102D20000080082C08D14FF0060925E0000C024075
:102D300000180240CC0200202046E31704EB537336
:102D4000DB1021464FEAE47C04EB5C7C4FEAEC0CA0
:102D5000A4EBCC0CBCF1000F02D04FF0010C01E051
:102D60004FF0000C6344224604EBD27C4FEA6C0C1B
:102D700003FB0CF303F0FF09AAF12000C6B2002503
:102D80005EE0082C07D106EB4600FE4901EB40004F
:102D900010F805B01DE00C2C07D106EB4600FA49EF
:102DA00001EB800010F805B013E0102C05D1F748B6
:102DB00000EB061010F805B00BE0182C07D106EB5D
:102DC000C600F34901EB800010F805B001E0BDE852
:102DD000FE8F002002901CE00BF0010028B141465C
:102DE00038460C9AFFF7B1FE09E00C9808B90120AB
:102DF00000E00020024641463846FFF7A6FE4FEAB3
:102E00006B0B08F1010000F0FF080298401CC0B2F3
:102E1000029002980828DFDB781CC7B2082C0BD080
:102E200004EBD4714A100199791A8A4204D1019FA6
:102E300000980830C0B20090DDF80080681CC5B270
:102E40004D459EDB00BFC2E72DE9F84106460F461F
:102E500014461D46DDF81C8013E0CDF80080227872
:102E60002B4639463046FFF753FF082D02D1B01DDF
:102E7000C6B205E0284605EBD07106EB6101CEB283
:102E8000641C2078202802DB20787E28E5DDBDE860
:102E9000F88110B50246012000E050430B1EA1F15D
:102EA0000104E1B2F9D110BD2DE9FF4F82B0064611
:102EB00091461F46DDE90F4A4FF0000B082C01D167
:102EC0004FF0020B002530E0781B401EC1B20A20F3
:102ED000FFF7DFFFB9FBF0F00A21B0FBF1F201FBD5
:102EE0001208B8F1000F0ED104EBD4710BEB6101A5
:102EF00001FB0561C8B223463022CDE900A4039945
:102F0000FFF706FF0FE004EBD4710BEB610101FB4F
:102F10000561C8B208F13001CAB22346CDE900A468
:102F20000399FFF7F5FE681CC5B2BD42CCDB06B0C5
:102F3000BDE8F08F2DE9FC4F0746884616461C4633
:102F4000BB46CDF804802046E21704EB5272D21043
:102F50002146E31704EB5373DB10A4EBC3030BB15F
:102F6000012300E000231A44624392B2009200253C
:102F700055E0102C05D1874800EB461010F805A04D
:102F80001BE0182C07D106EBC600834901EBC000FB
:102F900010F805A011E0202C05D1804800EBC610E8
:102FA00010F805A009E0402C05D17D4800EB462033
:102FB00010F805A001E0BDE8FC8F4FF000091CE00F
:102FC0000AF0010028B1414638460B9AFFF7BDFDD3
:102FD00009E00B9808B9012000E0002002464146B4
:102FE0003846FFF7B2FD4FEA6A0A08F1010000F027
:102FF000FF0809F1010000F0FF09B9F1080FDFDB5C
:10300000781CC7B2A7EB0B00A04204D15F46019821
:103010000830C0B20190DDF80480681C85B20098C9
:103020008542A6DB00BFC6E708B5804689469246C2
:10303000002600274BE04FB910233246182180208C
:10304000CDF800A0FFF776FF701CC6B2464522D12E
:103050004FF0000B1AE0012410E000250AE051486F
:1030600000EBC400415D601E4E4A02EBC0004155BA
:10307000681CC5B2082DF2DB601CC4B2902CECDBDE
:10308000FFF71CFD0BF1010000F0FF0B4FEA0910E8
:103090005845E0DC0026781CC7B2102F00D100276D
:1030A000012410E000250AE03E4800EBC400415D29
:1030B000601E3C4A02EBC0004155681CC5B2082D99
:1030C000F2DB601CC4B2902CECDBFFF7F7FCB2E73C
:1030D0002DE9FF4F05460E4617461C46DDF8389091
:1030E0004FF0000A0095B3462046E21704EB5272F7
:1030F000D2102146E31704EB5373DB10A4EBC30398
:103100000BB1012300E000231A44D4B24FF00008B1
:1031100058E0002003904EE00D9810F80A0002904D
:103120000AF101001FFA80FA002001901DE00298C8
:1031300000F0010028B14A4631462846FFF705FD58
:103140000AE0B9F1000F01D1012000E000200246A1
:1031500031462846FFF7F9FC029840100290701C97
:10316000C6B20198401CC0B2019001980828DEDB6D
:10317000681CC5B20098281AB84217D1009D0BF1FF
:10318000080011E0CC3F0008F44100086846000840
:10319000584C0008B4590008F45B00083C5C000877
:1031A000BC5C0008CC02002000F0FF0B5E460398D8
:1031B000401CC0B203900398B842ADDB08F1010097
:1031C00000F0FF08A045A4DBBDE8FF8F1CB501217E
:1031D0004820FDF75FFD2020009001208DF80400BD
:1031E0008DF8060003208DF8050001208DF80700FA
:1031F00069464E48FDF7B0FA1020009000208DF887
:10320000060069464948FDF7A7FA4FF48050009040
:1032100001208DF804008DF8060003208DF80500CC
:1032200001208DF8070069464148FDF795FA102105
:103230003E48FDF70FFBC820FEF75EFF10213B481C
:10324000FDF706FB0021AE20FFF7DCFB002108465E
:10325000FFF7D8FB00211020FFF7D4FB002140200E
:10326000FFF7D0FB00218120FFF7CCFB0021CF200E
:10327000FFF7C8FB0021A120FFF7C4FB0021C820F5
:10328000FFF7C0FB0021A620FFF7BCFB0021A82010
:10329000FFF7B8FB00213F20FFF7B4FB0021D3204C
:1032A000FFF7B0FB00210846FFF7ACFB0021D5205B
:1032B000FFF7A8FB00218020FFF7A4FB0021D92005
:1032C000FFF7A0FB0021F120FFF79CFB0021DA2093
:1032D000FFF798FB00211220FFF794FB0021DB2071
:1032E000FFF790FB00214020FFF78CFB00212020FE
:1032F000FFF788FB00210220FFF784FB00218D20CF
:10330000FFF780FB00211420FFF77CFB0021A420A5
:10331000FFF778FB0021A620FFF774FBFFF700FC06
:103320000021AF20FFF76EFB1CBD0000000C024027
:10333000001802401FB501210820FDF7F4FC002011
:10334000ADF80C00ADF806003120029042F2CF003B
:10335000ADF8040001A91248FDF79DFE01221146B7
:103360000F48FEF739FB01210D48FDF71DFF322004
:103370008DF8000001208DF8030003208DF8010076
:103380008DF802006846FDF7F6F81FBD10B5012163
:103390000348FEF738FB01210148FEF745FB10BD4D
:1033A000000C004000B589B001210420FDF772FC3B
:1033B00001210220FDF7B7FC022206219C48FDF7FF
:1033C00056FA022207219A48FDF751FA02208DF899
:1033D000200000208DF82200C020079000208DF8EA
:1033E000230003208DF8210007A99148FDF7B4F9C7
:1033F0009048FDF7A3FD04A8FDF781FE0020ADF87D
:103400001800ADF812004FF6FF7005900020ADF8DF
:10341000100004A98748FDF73EFE00231A46032149
:103420008448FEF7ACFB01A8FEF743FA0020ADF894
:103430000400ADF80600ADF80A000120ADF8080060
:103440000A20ADF80C0001A97A48FEF7FBF9042028
:10345000ADF804000020ADF80600ADF80A00012028
:10346000ADF808000A20ADF80C0001A97148FEF77C
:10347000E9F91D208DF8000001208DF803008DF87A
:10348000010002208DF802006846FDF774F8012162
:103490006848FEF7B5FA012211466648FEF79CFA25
:1034A00000216448FDF740FE01216248FDF77CFEE3
:1034B00009B000BD00B589B001210820FDF7EAFB85
:1034C00001210420FDF72FFC02220C215A48FDF7B0
:1034D000CEF902220D215848FDF7C9F902208DF8D6
:1034E000200000208DF822004FF44050079000206B
:1034F0008DF8230003208DF8210007A94E48FDF721
:103500002BF94E48FDF71AFD04A8FDF7F8FD002041
:10351000ADF81800ADF812004FF6FF7005900020CE
:10352000ADF8100004A94548FDF7B5FD00231A4683
:1035300003214248FEF723FB01A8FEF7BAF9002059
:10354000ADF80400ADF80600ADF80A000120ADF8B2
:1035500008000A20ADF80C0001A93848FEF772F9FE
:103560000420ADF804000020ADF80600ADF80A0014
:103570000120ADF808000A20ADF80C0001A92F4881
:10358000FEF760F91E208DF8000001208DF8030081
:1035900002208DF801008DF802006846FCF7EBFF71
:1035A00001212648FEF72CFA012211462348FEF796
:1035B00013FA00212148FDF7B7FD01211F48FDF74F
:1035C000F3FD09B000BD70B50546032D02D0042DF2
:1035D00012D108E01748FDF7ABFD04B200211548F1
:1035E000FDF7A2FD0AE01548FDF7A2FD04B2002197
:1035F0001248FDF799FD01E0002400BF00BF2046FE
:1036000070BD10B501210B48FEF7FDF918B101217D
:103610000848FEF709FA10BD10B501210748FEF76A
:10362000F2F918B101210548FEF7FEF910BD0000BE
:103630000008024000040040000C02400008004066
:1036400008B54FF4A060FCF791FF34208DF800001E
:1036500001208DF8010002208DF8020001208DF874
:1036600003006846FCF787FF08BD00B587B001215D
:103670000420FDF70FFB0121C804FDF754FB0822CD
:103680000A21BE48FDF7F3F808220B21BB48FDF7DD
:10369000EEF84FF44060059002208DF818008DF888
:1036A000190000208DF81A0001208DF81B0005A9D3
:1036B000B248FDF751F84FF4E13001900020ADF829
:1036C0000800ADF80A00ADF80C00ADF810000C20B1
:1036D000ADF80E0001A9AA48FEF7E9FAFFF7B0FF1E
:1036E000012240F22551A648FEF71FFC0121A44803
:1036F000FEF765FB07B000BD70B504460D462946D0
:103700002046FEF787FB00BF80212046FEF732FCF3
:103710000028F9D070BD70B506460C46002500BFE4
:10372000615D3046FFF7E8FF6D1C605D0028F7D152
:1037300000BF40213046FEF71DFC0028F9D070BDC7
:103740002DE9F04105460C46260AE7B231462846E7
:10375000FEF760FB00BF80212846FEF70BFC002827
:10376000F9D039462846FEF755FB00BF8021284690
:10377000FEF700FC0028F9D0BDE8F08170B50446E2
:103780000D46E1B27E48FEF745FB00BF80217C4834
:10379000FEF7F0FB0028F9D0204670BD10B50446B6
:1037A00000BF20217648FEF7E5FB0028F9D07448D9
:1037B000FEF734FB10BD1CB540F225517048FEF7F2
:1037C000EFFB00287DD06F48006808B9012000E0B9
:1037D00000206C4908606A48FEF720FBC0B20190E7
:1037E00001A86949086001201023009008462021A3
:1037F00002683820FFF728FB64A16348006800F0E6
:1038000063FB002846D16249086800EBD07149107B
:10381000A0EB410109BB5F4801685F480068FEF703
:10382000E2FF044621465648FFF775FF59480068F5
:103830005949086000F0D0FA5649086057A120465F
:1038400000F042FBB0B952480068401C5049086083
:1038500042214B48FFF750FF0CE04D49086800EB50
:10386000D0714910A0EB4101012903D14221444804
:10387000FFF742FF0120102344A230210090562080
:10388000FFF7E2FAFFF71AF941480068401C404987
:10389000086059E042A13C48006800F015FB88B977
:1038A000012010233EA2302100905620FFF7CCFAD1
:1038B000FFF704F9FEF78EFD4E213148FFF71CFF9C
:1038C00042E059E037A13048006800F0FDFA70B9D5
:1038D0000120102333A2302100905620FFF7B4FAC4
:1038E000FFF7ECF84E212648FFF706FF2CE02EA14B
:1038F0002548006800F0E8FA80B9012010232AA2C8
:10390000302100905620FFF79FFAFFF7D7F8FEF717
:10391000C0FD4E211A48FFF7EFFE15E023A11A481B
:10392000006800F0D1FA78B9012010231FA23021DD
:1039300000905620FFF788FAFFF7C0F8FEF7EFFD7A
:103940004E210F48FFF7D8FE0120102300901248A7
:10395000002102680846FFF777FA01201023009043
:103960000C48002102683820FFF76EFA0020064953
:1039700009680870FFF7A2F81CBD000000080240AB
:10398000004C0040A8824242080000204300000092
:10399000380000200400002000000020410000004A
:1039A000530000004E0000004C00000052000000D8
:1039B00070B50546002400BF0BE004EB4401F84A53
:1039C000126852F83100294600F07EFA00B906E08C
:1039D000641CF3480068D0F8DC03A042EDDC00BFB3
:1039E000EF480068D0F8DC03A04202DC4FF0FF3063
:1039F00070BD2046FCE72DE9F05F0D20E84909681D
:103A0000C1F8DC031020E6490968C1F8E00300248E
:103A10001BE0E44850F8240004EB4401E04A12683B
:103A200042F8310004EB4400DD49096801EBC000B5
:103A3000DD4901EB041CDCE90031DCE9022CC0E9C2
:103A4000042CC0E90231601CC4B2D5480068D0F82B
:103A5000DC03A042DDDC002419E000260FE042F286
:103A60000F7104EB840000EBC402CD48006800F540
:103A70009C7000EB820040F82610701CC6B2C8484B
:103A80000068D0F8DC03B042E9DC601CC4B2C44872
:103A90000068D0F8DC03A042DFDC00252CE000BF8A
:103AA00000BFC24850F825A0C14850F825B0C14811
:103AB00010F825705046FFF77BFF80465846FFF709
:103AC00077FF814608EB880000EBC801B448006826
:103AD00000F59C7000EB810040F8297009EB89002B
:103AE00000EBC901AE48006800F59C7000EB810056
:103AF00040F82870681CC5B2A9480068D0F8E003F7
:103B0000A842CCDCBDE8F09FF0B5034600240025B8
:103B1000A94E756502EB4205A14E366856F8355040
:103B2000A54E766DA44F47F8265053F82200451C49
:103B300085B312E0641CA04D6D6D6D1C9E4E7565C5
:103B400000EB4005964E366856F835509A4E766D25
:103B5000994F47F8265053F820008842EAD1641C58
:103B6000954D6D6D6D1C944E756501EB41058C4E48
:103B7000366856F83550904E766D8F4F47F8265080
:103B80003D466D6D3E46B56535466D6DF565354610
:103B90006D6D3566F0BD2DE9F04FA7B0074688463C
:103BA000B946C24600252BE007EB870000EBC701B2
:103BB0007B48006800F59C7000EB810050F8250000
:103BC0001AA941F8250000204DF8250007EB8700D1
:103BD00000EBC7017248006800F59C7000EB8100A3
:103BE00050F8250042F20F71884203DA0DA840F820
:103BF000257004E04FF0FF300DA941F825006D1C41
:103C000067480068D0F8DC03A842CDDC01204DF8FD
:103C10002700002551E042F20F7B00240CE05DF804
:103C2000240040B91AA850F82400584503DA264663
:103C30001AA850F824B0641C59480068D0F8DC0376
:103C4000A042ECDC01204DF8260000242EE05DF8B7
:103C5000240050BB06EB860000EBC601504800680C
:103C600000F59C7000EB810050F824001AA951F86F
:103C7000261008441AA951F82410884215DA06EBD8
:103C8000860000EBC6014648006800F59C7000EB1A
:103C9000810050F824001AA951F8261008441AA9E6
:103CA00041F824000DA840F82460641C3C480068DA
:103CB000D0F8DC03A042CADC6D1C39480068D0F89B
:103CC000DC03A842A7DC524649460DA8FFF71CFFBB
:103CD00027B0BDE8F08F70B53748446D5DE03649D8
:103CE00051F82400FFF764FE0646611E324A52F87E
:103CF0002100FFF75DFE054606EB460028490968EE
:103D000001EBC000816805EB4500254A126852F8B6
:103D10003000814204D129A12748343040F82410D2
:103D200006EB46001E49096801EBC000C06805EBC0
:103D300045011B4A126852F83110884204D120A173
:103D40001D48343040F8241006EB46001449096839
:103D500001EBC000006905EB4501114A126852F8F9
:103D60003110884204D118A11348343040F824108F
:103D700006EB46000A49096801EBC000406905EB03
:103D80004501074A126852F83110884204D110A147
:103D90000948343040F82410641E002C9FDC70BDAC
:103DA000000200200C0100203C0000204001002007
:103DB00080010020C00100204C0700207570000029
:103DC000646F776E000000006C6566740000000090
:103DD00072696768740000003648406D00280ADD8B
:103DE0003448416D406D401E324A506502F1340046
:103DF00050F82100704730A0FCE72E48806D002865
:103E000009DD2C48816D806D401E2A4A9065104660
:103E100050F82100704728A0FCE72648C06D002814
:103E200007DD2448C06D401E2249C86551F82000B6
:103E3000704721A0FCE770B51E48006E1D4E56F875
:103E400020403046006E401E306656F8205000215B
:103E500010E01B4850F821201A4850F82130A242A7
:103E600001D1AB4203D0A34203D1AA4201D10846FB
:103E700070BD491C1029ECDB4FF0FF30F8E72DE94D
:103E8000F04107460C46FFF7B6FD3846FFF790FDB8
:103E900005462046FFF78CFD0646681C38B1701CAD
:103EA00028B131462846FFF776FEFFF714FFBDE83C
:103EB000F08100004C0700206F7665720000000062
:103EC00040010020800100204FF0013C50F8042BFD
:103ED00051F8043B9A4221D1A2EB0C03934313EA1D
:103EE000CC1317D150F8042B51F8043B9A4215D14A
:103EF000A2EB0C03934313EACC130BD150F8042B21
:103F000051F8043B9A4209D1A2EB0C03934313EA04
:103F1000CC13DBD04FF00000704700BFD01A01BABD
:103F2000B1FA81F101F0180122FA01F0CB40C1F1A0
:103F30002001DBB2C0B2C01A2CFA01F3D11A9143AE
:103F400011EAC311E6D17047704770477047754654
:103F500000F02CF8AE4605006946534620F00700F5
:103F6000854618B020B5FCF7EFFABDE820404FF0C9
:103F700000064FF000074FF000084FF0000B21F053
:103F80000701AC46ACE8C009ACE8C009ACE8C00920
:103F9000ACE8C0098D46704710B50446AFF3008009
:103FA0002046BDE81040FCF758B9000000487047B3
:103FB000940B002001491820ABBEFEE7260002004A
:103FC00070474FF04070E1EE100A704700000000AB
:103FD00000000000002F0000000007000700001490
:103FE0007F147F1400242A7F2A120062640813239E
:103FF00000364955225000000503000000001C2235
:104000004100000041221C000014083E0814000872
:10401000083E0808000000A0600000080808080822
:10402000000060600000002010080402003E5149BA
:10403000453E0000427F4000004261514946002158
:1040400041454B31001814127F1000274545453972
:10405000003C4A49493000017109050300364949CD
:10406000493600064949291E000036360000000086
:1040700056360000000814224100001414141414D1
:10408000000041221408000201510906003249597A
:10409000513E007C1211127C007F49494936003E96
:1040A00041414122007F4141221C007F4949494151
:1040B000007F09090901003E4149497A007F08084B
:1040C000087F0000417F4100002040413F01007F08
:1040D00008142241007F40404040007F020C027FD4
:1040E000007F0408107F003E4141413E007F0909E6
:1040F0000906003E4151215E007F0919294600460C
:10410000494949310001017F0101003F4040403FE2
:10411000001F2040201F003F4038403F006314082C
:104120001463000708700807006151494543000007
:104130007F41410000552A552A55000041417F002A
:10414000000402010204004040404040000001021F
:104150000400002054545478007F48444438003808
:104160004444442000384444487F00385454541890
:1041700000087E0901020018A4A4A47C007F0804A2
:1041800004780000447D4000004080847D00007F72
:10419000102844000000417F4000007C041804788F
:1041A000007C0804047800384444443800FC24248B
:1041B00024180018242418FC007C08040408004873
:1041C0005454542000043F444020003C4040207C94
:1041D000001C2040201C003C4030403C0044281083
:1041E0002844001CA0A0A07C004464544C44141437
:1041F000141414140000000000000000000000006F
:104200000000FC000000000002000000000C020C96
:10421000020000000000000090D0BCD0BC90000361
:10422000000300001824FE448C0003020702010072
:104230001824D8B04C80000300010201C038E438D3
:10424000E000010202010202080600000000000076
:1042500000000000000000F8040200000001020459
:10426000000204F800000004020100009060F86001
:1042700090000000010000002020FC202000000031
:10428000010000000000000000000806000000001F
:10429000202020202000000000000000000000007E
:1042A00000000002000000000080601C0200040307
:1042B00000000000F8040404F800010202020100FA
:1042C0000008FC00000000020302000018844424DF
:1042D000180003020202020008042424D80001028C
:1042E0000202010040B088FC8000000000030200D0
:1042F0003C242424C400010202020100F824242CDE
:10430000C0000102020201000C04E41C04000000D1
:1043100003000000D8242424D80001020202010076
:1043200038444444F8000003020201000000100079
:10433000000000000200000000002000000000005B
:104340000600000000205088040200000000010266
:1043500090909090900000000000000000020488FF
:1043600050200002010000001804C42418000000BE
:1043700002000000F804E494F800010202020200C6
:1043800000E09CF0800002030000030204FC2424EF
:10439000D800020302020100F80404040C00010228
:1043A0000202010004FC0404F800020302020100FE
:1043B00004FC24740C0002030202030004FC2474B5
:1043C0000C00020302000000F0080444CC4000018D
:1043D0000202010004FC2020FC040203000003028E
:1043E0000404FC040400020203020200000404FCB2
:1043F000040406040403000004FC24D00C0402039B
:104400000200030204FC0400000002030202020393
:10441000FC3CC03CFC0003000300030004FC30C46F
:10442000FC04020302000300F8040404F800010283
:104430000202010004FC2424180002030200000010
:10444000F8848404F80001020207050004FC2464D7
:104450009800020302000302182424448C00030283
:10446000020201000C04FC040C0000020302000024
:1044700004FC0000FC04000102020100047C80E056
:104480001C040000030000001CE03CE01C000003D2
:1044900000030000049C609C04000203000302006F
:1044A000041CE01C04000002030200000C84641CD5
:1044B00004000203020203000000FE0202000000EA
:1044C00007040400000E30C00000000000010200DC
:1044D000000202FE000000040407000000040204C1
:1044E00000000000000000000000000000000808BC
:1044F000080808080000020000000000000000009A
:104500000040A0A0C00000010202030204FC202021
:10451000C00000030202010000C020206000000172
:104520000202020000C02024FC000001020203027B
:1045300000C0A0A0C0000001020202000020F82478
:1045400024040002030202000040A0A06020000733
:104550000A0A0A0404FC2020C0000203020003022D
:104560000020E4000000000203020000000020E43C
:10457000000008080807000004FC80E02020020377
:10458000020003020404FC00000002020302020015
:10459000E020E020C00003000300030020E0202012
:1045A000C00002030200030200C02020C00000017E
:1045B0000202010020E02020C000080F0A020100D2
:1045C00000C02020E0000001020A0F0820E0402087
:1045D00020000203020000000060A0A020000002F2
:1045E000020203000020F820000000000102020087
:1045F00020E00020E00000010202030220E0208011
:1046000060200000030100006080E0806000000383
:10461000000300002060806020000203000302000D
:1046200020E0208060200808070100000020A06032
:104630002000000203020200000020DE0200000051
:1046400000070400000000FF00000000000F000051
:104650000002DE2000000004070000000201020446
:104660000402000000000000000000000000000044
:104670000000000000000000000000F80000000042
:10468000000000333000000000100C06100C060083
:10469000000000000000000040C07840C0784000EA
:1046A000043F04043F040400007088FC083000004C
:1046B000001820FF211E0000F008F000E0180000A4
:1046C00000211C031E211E0000F00888700000005D
:1046D0001E2123241927211010160E0000000000AF
:1046E0000000000000000000000000E018040200CC
:1046F000000000071820400000020418E00000003D
:104700000040201807000000404080F0804040003A
:104710000202010F01020200000000F00000000090
:104720000101011F01010100000000000000000064
:1047300080B07000000000000000000000000000D9
:104740000001010101010101000000000000000062
:1047500000303000000000000000000080601804FD
:10476000006018060100000000E010080810E000DA
:10477000000F102020100F00001010F800000000A3
:104780000020203F202000000070080808887000EA
:10479000003028242221300000300888884830006A
:1047A0000018202020110E000000C02010F800008A
:1047B00000070424243F240000F808888808080023
:1047C0000019212020110E0000E010888818000038
:1047D000000F112020110E0000380808C83808000A
:1047E0000000003F0000000000708808088870008A
:1047F000001C222121221C0000E010080810E0000B
:104800000000312222110F00000000C0C000000093
:1048100000000030300000000000008000000000B8
:1048200000008060000000000000804020100800B0
:104830000001020408102000404040404040400079
:104840000404040404040400000810204080000054
:104850000020100804020100007048080808F00059
:104860000000003036010000C030C828E810E00029
:104870000718272423140B000000C038E0000000B4
:10488000203C23020227382008F88888887000001E
:10489000203F202020110E00C030080808083800F2
:1048A000071820202010080008F808080810E00069
:1048B000203F202020100F0008F88888E80810000A
:1048C000203F20202320180008F88888E8081000DE
:1048D000203F200003000000C03008080838000016
:1048E00007182020221E020008F808000008F80817
:1048F000203F210101213F20000808F8080800009E
:104900000020203F2020000000000808F8080800D0
:10491000C08080807F00000008F888C02818080048
:10492000203F20012638200008F808000000000081
:10493000203F20202020300008F8F800F8F8080078
:10494000203F003F003F200008F830C00008F80872
:10495000203F200007183F00E01008080810E00082
:104960000F10202020100F0008F808080808F00099
:10497000203F210101010000E01008080810E000BC
:104980000F18242438504F0008F888888888700051
:10499000203F2000030C30200070880808083800F1
:1049A0000038202121221C00180808F808081800E7
:1049B0000000203F2000000008F808000008F80868
:1049C000001F202020201F000878880000C8380819
:1049D000000007380E010000F80800F80008F80091
:1049E000033C0700073C030008186880806818082B
:1049F00020302C03032C30200838C800C8380800A9
:104A00000000203F2000000010080808C8380800F7
:104A10002038262120201800000000FE020202009B
:104A20000000007F40404000000C30C0000000004B
:104A3000000000010638C00000020202FE00000073
:104A4000004040407F000000000004020202040019
:104A50000000000000000000000000000000000056
:104A6000808080808080808000020204000000003E
:104A70000000000000000000000080808080000036
:104A80000019242222223F2008F800808000000024
:104A9000003F112020110E000000008080800000E7
:104AA000000E112020201100000000808088F800F6
:104AB000000E112020103F20000080808080000028
:104AC000001F222222221300008080F0888888188C
:104AD0000020203F20200000000080808080800097
:104AE000006B94949493600008F80080808000002C
:104AF000203F210000203F20008098980000000007
:104B00000020203F20200000000000809898000036
:104B100000C08080807F000008F800008080800056
:104B2000203F24022D302000000808F8000000007B
:104B30000020203F20200000808080808080800036
:104B4000203F20003F20003F8080008080800000C8
:104B5000203F210000203F20000080808080000056
:104B6000001F202020201F00808000808000000087
:104B700080FFA12020110E000000008080808000B6
:104B8000000E112020A0FF808080800080808000A7
:104B900020203F21200001000000808080808000D4
:104BA0000033242424241900008080E08080000049
:104BB0000000001F20200000808000000080800096
:104BC000001F202020103F208080800000808080F7
:104BD00000010E3008060100808000800080808087
:104BE0000F300C030C300F000080800080808000AC
:104BF0000020312E0E3120008080800000808080D7
:104C000080818E7018060100008080808080800086
:104C10000021302C2221300000000000807C0202A4
:104C200000000000003F404000000000FF000000C6
:104C300000000000FF0000000002027C8000000075
:104C40000040403F00000000000601010202040491
:104C50000000000000000000000000000000000054
:104C60000000000000000000000000000000000044
:104C70000000000000000000000000000000000034
:104C800000F0F0F0000000000000000000017F01D3
:104C90000000000000000000001C1C1C00000000C0
:104CA00000008060301C8C60301C0C000000000094
:104CB00000000000000000000000000000000000F4
:104CC00000000000000000E00000000000E0000024
:104CD0000086E69F86868686E69F860000011F0185
:104CE000010101011F010100000080C06020F820C7
:104CF000E0C00000000003070C18FF70E181000015
:104D00000000070F10107F100F0700008060206068
:104D100080000000E02000000F3020309F70DC3762
:104D20001030C0000000100E030007181018070014
:104D30000000C02020E0C0000000000080E01F381C
:104D4000E88703C43C040000070F1810100B070D80
:104D50001010080000808C4C38000000000000009B
:104D60000000000000000000000000000000000043
:104D7000000000000000000000000000000080E0D3
:104D8000300804000000000000FEFF0100000000E9
:104D9000000000000000030F18204000000408304D
:104DA000E0800000000000000000000001FFFE00A5
:104DB00000000000004020180F0300000000000069
:104DC000000000000000C000000000000042666615
:104DD0003C18FF183C66664200000000000003001B
:104DE0000000000000000000000080000000000043
:104DF000001010101010FF10101010100000000014
:104E0000000003000000000000000000000000009F
:104E10000000000000000000000000000000000092
:104E200000808C4C380000000000000000000000F2
:104E30000000000000000000001010101010101002
:104E40001010100000000000000000000000000032
:104E50000000000000000000000000000000000052
:104E6000000000000000000000001C1C1C000000EE
:104E7000000000000000000000000000E0380C000E
:104E80000000000080701C03000000000060380E6D
:104E90000100000000000000000080C060202060D1
:104EA000C080000000FEFF010000000001FFFE00C6
:104EB0000001070E181010180E0701000000808076
:104EC00080C0E000000000000000000000FFFF00C4
:104ED0000000000000001010101F1F101010000034
:104EE0000080402020202060C080000000030300DC
:104EF000804020381F070000001C1A1918181818C5
:104F0000181F00000080C020202060C0800000002A
:104F1000000303001010182FE780000000070F1097
:104F2000101010180F070000000000000000C0E083
:104F3000F000000000C0B088868180FFFF80800004
:104F4000000000000010101F1F1010000000E060A3
:104F5000606060606060000000003F100808081892
:104F6000F0E0000000070B101010101C0F030000F1
:104F7000000080C040202020E0C0000000FCFF2195
:104F80001008080818F0E0000001070C18101010B5
:104F9000080F03000000C0E06060606060E0600037
:104FA000000003000000E0180700000000000000FF
:104FB000001F1F00000000000080C0602020202093
:104FC00060C080000087EF2C1818303068CF830055
:104FD00000070F0810101010180F07000000C0C0C5
:104FE00020202020C0800000001F3F604040402063
:104FF00010FFFE0000000C1C101010080F03000032
:1050000000000000000000000000000000000000A0
:10501000000E0E0E0000000000000000001C1C1C12
:105020000000000000000000000000000000000080
:1050300000000000000C0C00000000000000000058
:105040000058380000000000000000000000008050
:1050500040201000000010284482010000000000E1
:105060000000000000000102040810000000000021
:105070000000000000000000008484848484848494
:105080008484840000000000000000000000000094
:105090000000102040800000000000000000000020
:1050A00000000182442810000000100804020100E2
:1050B0000000000000C020201010101030E0C000E0
:1050C0000003030000F010080C07030000000000BC
:1050D0001C1C1C0000000000000000C040602020DC
:1050E0002040C00000FCFF01F00E03C1FE03807FE2
:1050F0000001070E08111110110904020000000040
:1051000080E0E000000000000000807C4340477F1A
:10511000F880000010181F1000000000131F1C1062
:1051200020E0E02020202060C080000000FFFF1071
:10513000101010182FE78000101F1F1010101010F3
:10514000180F0700000080C0402020202060E000F1
:1051500000FCFF0100000000000001000001070E3C
:10516000181010100804030020E0E0202020204048
:10517000C080000000FFFF000000000001FFFE00F3
:10518000101F1F10101018080E07010020E0E0206B
:10519000202020202060800000FFFF101010107CD5
:1051A00000000000101F1F10101010101018060033
:1051B00020E0E020202020206060800000FFFF1021
:1051C0001010107C00000100101F1F1000000000D4
:1051D00000000000000080C06020202040E00000AF
:1051E00000FCFF0100004040C0C140400001070E2C
:1051F000181010100F0F000020E0E0200000000049
:1052000020E0E02000FFFF101010101010FFFF0042
:10521000101F1F1000000000101F1F100000202092
:1052200020E0E020202000000000000000FFFF0040
:105230000000000000001010101F1F1010100000D0
:1052400000000000202020E0E020202000000000DE
:10525000000000FFFF0000000060E0808080C07F51
:105260003F00000020E0E020000020A0602020009F
:1052700000FFFF30187CE3C000000000101F1F106B
:10528000000001131F1C181020E0E02000000000A7
:105290000000000000FFFF00000000000000000010
:1052A000101F1F10101010101018060020E0E0E072
:1052B00000000000E0E0E02000FF013FFEC0E01E33
:1052C00001FFFF00101F1000031F0300101F1F101D
:1052D00020E0E0C0000000000020E02000FF00030C
:1052E000071C78E08000FF00101F10000000000085
:1052F000030F1F00000080C060202060C0800000FD
:1053000000FEFF010000000000FFFE000001070E8C
:10531000181010180C07010020E0E02020202020A9
:1053200060C0800000FFFF2020202020301F0F00E1
:10533000101F1F100000000000000000000080C0CF
:1053400060202060C080000000FEFF01000000001F
:1053500000FFFE000001070E1111133C7C672100C5
:1053600020E0E0202020202060C0800000FFFF100F
:105370001030F0D0080F0700101F1F1000000003AE
:105380000F1C10100080C060202020204040E00052
:1053900000070F0C1818303060E08100001F0C0867
:1053A00010101010180F07008060202020E0E0206F
:1053B000202060800100000000FFFF0000000001CD
:1053C00000000000101F1F100000000020E0E0207F
:1053D000000000000020E02000FFFF0000000000AF
:1053E0000000FF0000070F18101010101008070031
:1053F0002060E0E02000000020E060200000077F47
:10540000F88000807C03000000000000071F1C07DC
:105410000000000020E0E02000E0E0200020E0208C
:105420000007FFF8E01FFFFCE01F00000000031F63
:105430000300011F03000000002060E0A000002026
:10544000E0602000000000038F7CF8C6010000002F
:105450000010181E130001171F1810002060E0E054
:105460002000000020E06020000001073EF8E01866
:105470000700000000000010101F1F1010000000A7
:1054800000806020202020A0E0E02000000000003C
:10549000C0F03E0F0300000000101C1F171010107A
:1054A000101806000000000000FC040404040400BE
:1054B0000000000000FF00000000000000000000ED
:1054C000007F404040404000000010E0000000002D
:1054D0000000000000000000031C608000000000CD
:1054E00000000000000000030C70800000000404B5
:1054F000040404FC0000000000000000000000FFA5
:1055000000000000000040404040407F00000000DC
:1055100000000010080C040C08100000000000003F
:10552000000000000000000000000000000000007B
:10553000000000000000000000000000000000006B
:10554000000000000000000000000000808080805B
:105550008080808080808080000000040408080033
:10556000000000000000000000000000000000003B
:10557000000000000000000000000000000000002B
:105580000000000000000000000098D844642424BB
:10559000FCF80000000F1F18101010081F1F101833
:1055A0000020E0F000000000000000000000FFFF0D
:1055B000180804040CF8F00000001F0F1810101059
:1055C000180F0300000000000000000000000000B1
:1055D00000E0F8180404043C3800000000030F0C3D
:1055E000101010100806000000000000000000204D
:1055F000E0F0000000E0F81C04040408FFFF0000D5
:1056000000030F18101010081F0F08000000000002
:1056100000000000000000000000E0F8484444449E
:105620004C7870000000030F0C18101010080400D4
:105630000000000080C0602020E0C00000040404DE
:10564000FFFF040404040000000010101F1F1010CE
:10565000100000000000000000000000000000003A
:10566000000070F88C04048CF874040C007076CF81
:105670008D8D8D89C87870000020E0F0000000005A
:10568000000000000000FFFF08040404FCF8000014
:1056900000101F1F100000101F1F1000000000004E
:1056A00000606000000000000000040404FCFC0036
:1056B0000000000000001010101F1F10101000004C
:1056C000000000000000006060000000000000001A
:1056D000040404FCFC0000000000C0C08080C07F07
:1056E0003F0000000020E0F000000000000000008B
:1056F0000000FFFF80C0F41C0404000000101F1F06
:105700001100031F1C1010000000202020E0F000FA
:10571000000000000000000000FFFF00000000008B
:1057200000001010101F1F101010000000000000DB
:10573000000000000000000004FCFC0804FCFC0861
:1057400004FCFC00101F1F10001F1F10001F1F1063
:105750000000000000000000000000000004FCFC4D
:1057600008080404FCF8000000101F1F10000010BF
:105770001F1F1000000000000000000000000000DB
:1057800000E0F0180C04040C18F0E00000030F0C0B
:10579000101010100C0F03000000000000000000AB
:1057A000000000000004FCFC080404040CF8F000F5
:1057B0000080FFFF889010101C0F03000000000005
:1057C000000000000000000000E0F81C04040408D1
:1057D000F8FC000000030F1810109088FFFF8000F5
:1057E000000000000000000000000000040404FCB1
:1057F000FC100804040C0C001010101F1F101010D7
:105800000000000000000000000000000000000098
:1058100000003078CCC48484840C1C0000001E1866
:1058200010101011190F06000000000000C0000049
:105830000000000000040404FFFF04040400000052
:10584000000000000F1F1010100C000000000000EE
:1058500000000000000000000004FCFE0000000446
:10586000FCFE000000000F1F181010081F0F08009A
:1058700000000000000000000000000000040C3CDC
:10588000FCC40000C43C0C0400000000010F1E0E0C
:105890000100000000000000000000000000000007
:1058A000043CFCC400E47CFC84807C040000071FF2
:1058B000070000071F0700000000000000000000B4
:1058C000000000000004041C7CE4C0341C0404003C
:1058D0000010101C1601131F1C18100000000000FF
:1058E000000000000000000000040C3CFCC400C4E8
:1058F0003C0404000000C080C1370E01000000001D
:1059000000000000000000000000000000001C0477
:1059100004C4F47C1C0400000000101C1F171110AC
:1059200010180E0000000000000000F80C04000039
:1059300000000000001028EF000000000000000040
:105940000000003F60400000000000000000FF0079
:1059500000000000000000000000FF000000000048
:10596000000000000000FF00000000000000040C28
:10597000F80000000000000000000000EF28100008
:1059800000000000000040603F0000000000000038
:105990000018060202040810202030080000000051
:1059A00000000000000000000000000000000000F7
:1059B00000000000080889EE980000FE0202F202D2
:1059C00002FE0000020100FF008340231806017E52
:1059D0008083E000201809CA4848494A48484CCA10
:1059E000092818000080804F402018077880808F99
:1059F00080E0000000007E92929292929292929E9B
:105A000080E00000040404040C34040444847F0493
:105A10000404040080FC96E584FC0008C8494AC8D8
:105A200008080000807F024C807F80601F00003FDC
:105A300040407800000000E0000000FF000000206F
:105A400040800000080403000040807F0000000048
:105A500000010E000008884828180FE80808080808
:105A60000808000008080909090909FF09090909C6
:105A7000090808001010D0FF9014E4AFA4A4A4AF4C
:105A8000E4040000040300FF00894B2A1A0E1A2ABE
:105A90004B888000101090909090901010FF101084
:105AA00011161000002060203F10101000030C1091
:105AB0002040F8000808E8292E28E80808C80C0B40
:105AC000E80808000000FF0949897F00000F4080B6
:105AD0007F000000404042CC00808888FF8888FF1B
